:100000000C9438000C9455000C9455000C94550039
:100010000C9455000C9455000C9455000C9455000C
:100020000C9455000C9455000C9455000C945500FC
:100030000C9455000C9455000C9455000C945500EC
:100040000C9455000C9455000C9455000C945500DC
:100050000C9455000C9455000C9455000C945500CC
:100060000C9455000C9455000C9455000C945500BC
:1000700011241FBECFEFD4E0DEBFCDBF12E0A0E061
:10008000B1E0E4EBFCE002C005900D92A630B107B0
:10009000D9F722E0A6E0B2E001C01D92A031B2077C
:1000A000E1F70E94F1000C9458060C94000085B70B
:1000B000806885BF80B7806280BF85B38FEF85BBC6
:1000C0000895EF92FF920F931F93CF93DF938AE0EF
:1000D00091E00E94B9010E9448017C010E944D01FB
:1000E000C0E0D0E000E010E020C00E944801FE0126
:1000F000F85E808320812817B9F099279F938F930A
:100100001F922F93DF93CF9385E291E09F938F937C
:100110000E94A3010F5F1F4F8DB79EB708960FB6C1
:10012000F8949EBF0FBE8DBF2196C11598E0D907E8
:10013000E0F2C7010E944D01C0E0D0E0E12CF12CBB
:1001400020C00E944801FE01F85E20812817C1F0FE
:1001500099279F938F931F922F93DF93CF9384E6DA
:1001600091E09F938F930E94A3018FEFE81AF80A02
:100170008DB79EB708960FB6F8949EBF0FBE8DBF81
:100180002196C11598E0D907E0F2FF92EF921F93F4
:100190000F9387EA91E09F938F930E94A3010F90A2
:1001A0000F900F900F900F900F90DF91CF911F91B4
:1001B0000F91FF90EF9008955D9BFECF8CB908954D
:1001C0005F9BFECF8CB1089590BD89B988E18AB953
:1001D0008EE880BD60EE70E08CED90E00E945801EA
:1001E00008958FE190E00E94E4000E9457000E9471
:1001F000610080E090E008958F929F92AF92BF924D
:10020000CF92DF92EF92FF92CF93DF93EC01688160
:1002100079818A819B81611571058105910521F4A0
:1002200064E279ED8BE597E02DE133EF41E050E0BA
:100230000E94BE0549015A019B01AC01A7EAB1E445
:100240000E94DD056B017C01ACEEB4EFA5019401C9
:100250000E94EB05DC01CB018C0D9D1DAE1DBF1D69
:10026000B7FF03C00197A109B04888839983AA8387
:10027000BB839F77DF91CF91FF90EF90DF90CF907E
:10028000BF90AF909F908F9008950E94FC000895BA
:1002900080E091E00E94FC000895A0E0B0E080932F
:1002A000000190930101A0930201B093030108950E
:1002B0000F931F93CF93DF93009731F4611571056E
:1002C00019F480E090E03AC08B01EC016EE070E040
:1002D00081E090E00E94CA03FC01892B91F380E841
:1002E00083830115110571F01387028781E88383E9
:1002F0008091060290910702892B21F4F093070266
:10030000E09306022097C9F0D187C087838182607D
:1003100083838091080290910902892B71F4F093F4
:100320000902E093080280910A0290910B02892B46
:1003300021F4F0930B02E0930A02CF01DF91CF91F9
:100340001F910F910895A0E0B0E0E9EAF1E00C946C
:100350000006AE014B5F5F4FFA0161917191AF01F1
:1003600080910802909109020E94E901E2E00C9458
:100370001C060F931F93CF93DF93E0910802F09137
:100380000902238121FF1BC08C01D0E0C0E0F801ED
:1003900081918F016091080270910902DB0118962A
:1003A000ED91FC911997882331F00995892B79F308
:1003B000DFEFCFEFECCF8AE00995892B19F08FEFB3
:1003C0009FEF02C08D2F9C2FDF91CF911F910F9136
:1003D0000895ABE0B0E0EFEEF1E00C94F0056C01B5
:1003E0007B018A01FC0117821682838181FFCCC1C7
:1003F000CE0101963C01F6019381F70193FD8591B1
:1004000093FF81917F01882309F4BAC1853239F4C1
:1004100093FD859193FF81917F01853229F4B60187
:1004200090E00E942405E7CF912C212C312CFFE194
:10043000F315D8F08B3279F038F4803279F08332CA
:10044000A1F4232D20611DC08D3261F0803369F449
:10045000232D216016C0832D8260382EE32DE460A9
:100460003E2E2AC0F32DF8601DC037FC2DC020EDB4
:10047000280F2A3040F08E32B9F436FC81C1232D8A
:100480002064322E19C036FE06C08AE0989E200DE8
:100490001124922E11C0EAE02E9E200D1124222E4E
:1004A000F32DF0623F2E08C08C3621F4832D806836
:1004B000382E02C0883641F4F70193FD859193FFF1
:1004C00081917F018111B3CF982F9F7D95549330F7
:1004D00028F40C5F1F4F9FE399830DC0833631F0E2
:1004E000833771F0833509F059C021C0F80180814C
:1004F00089830E5F1F4F88248394912C530113C06E
:100500002801F2E04F0E511CF801A080B18036FEA8
:1005100003C0692D70E002C06FEF7FEFC5010E943C
:1005200019054C018201F32DFF773F2E16C02801DB
:1005300022E0420E511CF801A080B18036FE03C0BB
:10054000692D70E002C06FEF7FEFC5010E940705C3
:100550004C01F32DF0683F2E820133FC1BC0822D2D
:1005600090E088169906B0F4B60180E290E00E940F
:1005700024052A94F4CFF50137FC859137FE81914B
:100580005F01B60190E00E94240521102A9421E029
:10059000821A91088114910471F7E8C0843611F031
:1005A000893641F5F80137FE07C06081718182818B
:1005B00093810C5F1F4F08C060817181072E000C72
:1005C000880B990B0E5F1F4FF32DFF763F2E97FF81
:1005D00009C090958095709561957F4F8F4F9F4F83
:1005E000F0683F2E2AE030E0A3010E946005882ECB
:1005F000861845C0853731F4232D2F7EB22E2AE090
:1006000030E025C0932D997FB92E8F36C1F018F4B4
:10061000883579F0B5C0803719F0883721F0B0C03F
:10062000E92FE061BE2EB4FE0DC0FB2DF460BF2E9D
:1006300009C034FE0AC0292F2660B22E06C028E069
:1006400030E005C020E130E002C020E132E0F801F6
:10065000B7FE07C060817181828193810C5F1F4F5B
:1006600006C06081718180E090E00E5F1F4FA301A2
:100670000E946005882E8618FB2DFF773F2E36FEE0
:100680000DC0232D2E7FA22E891458F434FE0BC0EA
:1006900032FC09C0832D8E7EA82E05C0B82CA32C59
:1006A00003C0B82C01C0B92CA4FE0FC0FE01E80D98
:1006B000F11D8081803321F49A2D997EA92E09C0E5
:1006C000A2FE06C0B394B39404C08A2D867809F0C4
:1006D000B394A3FC11C0A0FE06C0B21488F4280C89
:1006E000922C9B180EC0B21460F4B60180E290E028
:1006F0000E942405B394F7CFB21418F42B1802C04B
:10070000982C212CA4FE10C0B60180E390E00E943A
:100710002405A2FE17C0A1FC03C088E790E002C038
:1007200088E590E0B6010CC08A2D867859F0A1FECC
:1007300002C08BE201C080E2A7FC8DE2B60190E02E
:100740000E942405891438F4B60180E390E00E94E9
:1007500024059A94F7CF8A94F301E80DF11D808166
:10076000B60190E00E9424058110F5CF222009F403
:1007700042CEB60180E290E00E9424052A94F6CF92
:10078000F6018681978102C08FEF9FEF2B96E2E101
:100790000C940C060F931F93CF93DF93869F8001D9
:1007A000879F100D969F100D1124C8010E94E6032B
:1007B000EC01009729F0A80160E070E00E941205AA
:1007C000CE01DF91CF911F910F9108950F931F9349
:1007D000CF93DF938230910510F482E090E0E091B6
:1007E0000E02F0910F0220E030E0A0E0B0E0309780
:1007F00019F1408151810281138148175907C8F0CE
:100800008417950769F4109731F012960C9312979C
:1008100013961C9327C000930E0210930F0222C060
:100820002115310519F04217530718F49A01BD013B
:10083000EF01DF01F801DBCF21153105F9F0281BAD
:10084000390B2430310580F48A819B816115710553
:1008500021F0FB019383828304C090930F02809365
:100860000E02FE01329644C0FE01E20FF31F819397
:10087000919322503109398328833AC020910C0288
:1008800030910D02232B41F4209106013091070194
:1008900030930D0220930C02209104013091050148
:1008A0002115310541F42DB73EB740910801509113
:1008B0000901241B350BE0910C02F0910D02E217A7
:1008C000F307A0F42E1B3F0B2817390778F0AC0173
:1008D0004E5F5F4F2417350748F04E0F5F1F509350
:1008E0000D0240930C028193919302C0E0E0F0E08E
:1008F000CF01DF91CF911F910F910895CF93DF9397
:10090000009709F481C0FC01329713821282A091F2
:100910000E02B0910F02109781F420813181820F75
:10092000931F20910C0230910D022817390751F5C1
:10093000F0930D02E0930C0267C0ED0120E030E07F
:10094000CE17DF0740F44A815B819E0141155105B6
:10095000F1F0EA01F5CFD383C28340815181840F46
:10096000951FC817D90759F488819981840F951F5D
:100970000296918380838A819B8193838283211550
:10098000310529F4F0930F02E0930E023DC0E90116
:10099000FB83EA8349915991C40FD51FEC17FD07DA
:1009A00061F480819181840F951F0296E9019983FA
:1009B0008883828193819B838A83E0E0F0E01296B2
:1009C0008D919C911397009719F0FD01DC01F7CFF1
:1009D0008D919C9111979D012E5F3F4F820F931F28
:1009E00020910C0230910D022817390769F43097D5
:1009F00029F410920F0210920E0202C0138212828A
:100A0000B0930D02A0930C02DF91CF910895FC01E9
:100A10000590615070400110D8F7809590958E0F29
:100A20009F1F0895DC0101C06D9341505040E0F7D5
:100A30000895FC016150704001900110D8F7809535
:100A400090958E0F9F1F08950F931F93CF93DF9361
:100A5000FB01238121FD03C08FEF9FEF2CC022FFFC
:100A600016C046815781248135814217530744F4CB
:100A7000A081B1819D012F5F3F4F318320838C93F3
:100A8000268137812F5F3F4F3783268314C08B0128
:100A9000EC01FB010084F185E02D0995892BE1F63D
:100AA000D80116968D919C911797019617969C9355
:100AB0008E931697CE01DF91CF911F910F910895DC
:100AC000FA01AA27283051F1203181F1E8946F937F
:100AD0006E7F6E5F7F4F8F4F9F4FAF4FB1E03ED025
:100AE000B4E03CD0670F781F891F9A1FA11D680FC3
:100AF000791F8A1F911DA11D6A0F711D811D911DF6
:100B0000A11D20D009F468943F912AE0269F11246A
:100B10003019305D3193DEF6CF010895462F4770CE
:100B2000405D4193B3E00FD0C9F7F6CF462F4F7029
:100B3000405D4A3318F0495D31FD4052419302D087
:100B4000A9F7EACFB4E0A69597958795779567952D
:100B5000BA95C9F700976105710508959B01AC012D
:100B60000A2E06945795479537952795BA95C9F754
:100B7000620F731F841F951FA01D0895052E97FBFC
:100B80001EF400940E94D50557FD07D00E94270649
:100B900007FC03D04EF40C94D50550954095309544
:100BA00021953F4F4F4F5F4F0895909580957095D9
:100BB00061957F4F8F4F9F4F08950E944906A59FD3
:100BC000900DB49F900DA49F800D911D1124089548
:100BD000B7FF0C94DD050E94DD05821B930B089581
:100BE0002F923F924F925F926F927F928F929F923D
:100BF000AF92BF92CF92DF92EF92FF920F931F932B
:100C0000CF93DF93CDB7DEB7CA1BDB0B0FB6F894DB
:100C1000DEBF0FBECDBF09942A88398848885F841B
:100C20006E847D848C849B84AA84B984C884DF808C
:100C3000EE80FD800C811B81AA81B981CE0FD11D70
:100C40000FB6F894DEBF0FBECDBFED010895A1E24F
:100C50001A2EAA1BBB1BFD010DC0AA1FBB1FEE1F36
:100C6000FF1FA217B307E407F50720F0A21BB30B81
:100C7000E40BF50B661F771F881F991F1A9469F7FD
:100C800060957095809590959B01AC01BD01CF0159
:100C90000895A29FB001B39FC001A39F700D811D55
:100CA0001124911DB29F700D811D1124911D089575
:040CB000F894FFCFE6
:100CB40001000000000010022000207374617274AF
:100CC400696E67207372616D2074657374202E20C1
:100CD4002E202E2000777269746520706861736518
:100CE400206572726F72203A206578742072616D8B
:100CF400205B2534645D203D202530327820282077
:100D040073686F756C642062652025303278292001
:100D14000A3F2D0072657472696576616C20706893
:100D2400617365206572726F72203A206578742051
:100D340072616D205B253464205D203D20253032B6
:100D440078202873686F756C6420626520253032C2
:100D54003F2D7829200A006572726F7220746573C2
:100D64007420636F6D706C65746564207769746852
:100D7400200A253464206572726F727320696E20B4
:100D8400777269746520706861736520616E642090
:100D94000A253464203F2D206572726F72732069B6
:100DA4006E2072657472696576616C207068617317
:060DB40065200A0A0000A0
:00000001FF
